{
  "address": "0x296c33560c2227fDD857b7A35e24c39fac6Cb824",
  "abi": [
    {
      "anonymous": false,
      "inputs": [
        {
          "indexed": true,
          "internalType": "uint256",
          "name": "id",
          "type": "uint256"
        },
        {
          "indexed": true,
          "internalType": "address",
          "name": "freelancer",
          "type": "address"
        },
        {
          "indexed": false,
          "internalType": "uint256",
          "name": "amount",
          "type": "uint256"
        }
      ],
      "name": "InvoiceCreated",
      "type": "event"
    },
    {
      "anonymous": false,
      "inputs": [
        {
          "indexed": true,
          "internalType": "uint256",
          "name": "id",
          "type": "uint256"
        },
        {
          "indexed": true,
          "internalType": "address",
          "name": "client",
          "type": "address"
        }
      ],
      "name": "InvoicePaid",
      "type": "event"
    },
    {
      "inputs": [
        {
          "internalType": "uint256",
          "name": "_id",
          "type": "uint256"
        }
      ],
      "name": "getInvoice",
      "outputs": [
        {
          "components": [
            {
              "internalType": "address",
              "name": "freelancer",
              "type": "address"
            },
            {
              "internalType": "address",
              "name": "client",
              "type": "address"
            },
            {
              "internalType": "uint256",
              "name": "amount",
              "type": "uint256"
            },
            {
              "internalType": "uint256",
              "name": "dueDate",
              "type": "uint256"
            },
            {
              "internalType": "bool",
              "name": "isPaid",
              "type": "bool"
            },
            {
              "internalType": "string",
              "name": "invoiceURI",
              "type": "string"
            }
          ],
          "internalType": "struct SettleInvoicing.Invoice",
          "name": "",
          "type": "tuple"
        }
      ],
      "stateMutability": "view",
      "type": "function"
    },
    {
      "inputs": [],
      "name": "invoiceCount",
      "outputs": [
        {
          "internalType": "uint256",
          "name": "",
          "type": "uint256"
        }
      ],
      "stateMutability": "view",
      "type": "function"
    },
    {
      "inputs": [
        {
          "internalType": "uint256",
          "name": "",
          "type": "uint256"
        }
      ],
      "name": "invoices",
      "outputs": [
        {
          "internalType": "address",
          "name": "freelancer",
          "type": "address"
        },
        {
          "internalType": "address",
          "name": "client",
          "type": "address"
        },
        {
          "internalType": "uint256",
          "name": "amount",
          "type": "uint256"
        },
        {
          "internalType": "uint256",
          "name": "dueDate",
          "type": "uint256"
        },
        {
          "internalType": "bool",
          "name": "isPaid",
          "type": "bool"
        },
        {
          "internalType": "string",
          "name": "invoiceURI",
          "type": "string"
        }
      ],
      "stateMutability": "view",
      "type": "function"
    },
    {
      "inputs": [
        {
          "internalType": "uint256",
          "name": "_id",
          "type": "uint256"
        },
        {
          "internalType": "address",
          "name": "_usdcAddress",
          "type": "address"
        }
      ],
      "name": "payInvoice",
      "outputs": [],
      "stateMutability": "nonpayable",
      "type": "function"
    },
    {
      "inputs": [
        {
          "internalType": "uint256",
          "name": "_amount",
          "type": "uint256"
        },
        {
          "internalType": "uint256",
          "name": "_dueDate",
          "type": "uint256"
        },
        {
          "internalType": "string",
          "name": "_uri",
          "type": "string"
        }
      ],
      "name": "registerInvoice",
      "outputs": [
        {
          "internalType": "uint256",
          "name": "",
          "type": "uint256"
        }
      ],
      "stateMutability": "nonpayable",
      "type": "function"
    }
  ],
  "transactionHash": "0x2aad99f3cbc76c88ef7aa1697334d17fcf097377d33be2529a2d6be89a0ef034",
  "args": [],
  "numDeployments": 1,
  "solcInputHash": "1662f2471da57c85fea1a75fc35ff740",
  "bytecode": "0x608060405234801561001057600080fd5b506109e1806100206000396000f3fe608060405234801561001057600080fd5b50600436106100575760003560e01c80631346f0c41461005c5780633a23cc0a146100785780634e6d14051461009857806391d115ac146100bd578063fd1793ba146100d2575b600080fd5b61006560015481565b6040519081526020015b60405180910390f35b61008b6100863660046105ec565b6100e5565b60405161006f919061064b565b6100ab6100a63660046105ec565b61022c565b60405161006f969594939291906106ae565b6100d06100cb3660046106fc565b6102fd565b005b6100656100e036600461074e565b6104ea565b6101326040518060c0016040528060006001600160a01b0316815260200160006001600160a01b031681526020016000815260200160008152602001600015158152602001606081525090565b60008281526020818152604091829020825160c08101845281546001600160a01b0390811682526001830154169281019290925260028101549282019290925260038201546060820152600482015460ff161515608082015260058201805491929160a0840191906101a390610812565b80601f01602080910402602001604051908101604052809291908181526020018280546101cf90610812565b801561021c5780601f106101f15761010080835404028352916020019161021c565b820191906000526020600020905b8154815290600101906020018083116101ff57829003601f168201915b5050505050815250509050919050565b6000602081905290815260409020805460018201546002830154600384015460048501546005860180546001600160a01b039687169796909516959394929360ff9092169261027a90610812565b80601f01602080910402602001604051908101604052809291908181526020018280546102a690610812565b80156102f35780601f106102c8576101008083540402835291602001916102f3565b820191906000526020600020905b8154815290600101906020018083116102d657829003601f168201915b5050505050905086565b6000828152602081905260409020600481015460ff161561035c5760405162461bcd60e51b8152602060048201526014602482015273125b9d9bda58d948185b1c9958591e481c185a5960621b60448201526064015b60405180910390fd5b60008160020154116103a95760405162461bcd60e51b8152602060048201526016602482015275125b9d9bda58d948191bd95cc81b9bdd08195e1a5cdd60521b6044820152606401610353565b6004818101805460ff19166001908117909155820180546001600160a01b03191633908117909155825460028401546040516323b872dd60e01b8152938401929092526001600160a01b039081166024840152604483019190915283916000918316906323b872dd906064016020604051808303816000875af1158015610434573d6000803e3d6000fd5b505050506040513d601f19601f82011682018060405250810190610458919061084c565b9050806104b65760405162461bcd60e51b815260206004820152602660248201527f55534443207472616e73666572206661696c65642e20436865636b20616c6c6f6044820152653bb0b731b29760d11b6064820152608401610353565b604051339086907fb721ab7d2767e645e582c99d779d54bb3193114ad7d13e7bd7f7f2fd9b1875b490600090a35050505050565b60018054600091826104fb83610875565b90915550506040805160c08101825233815260006020808301828152838501898152606085018981526080860185815260a087018a81526001805488529587905297909520865181546001600160a01b03199081166001600160a01b0392831617835594519582018054909516951694909417909255516002830155516003820155905160048201805460ff1916911515919091179055915190919060058201906105a690826108eb565b50506001546040518681523392507f4e27a303d25b2e40e99bc657bbe98e016a53a2ac1696a9a7d3cd6719cad518fa9060200160405180910390a3506001549392505050565b6000602082840312156105fe57600080fd5b5035919050565b6000815180845260005b8181101561062b5760208185018101518683018201520161060f565b506000602082860101526020601f19601f83011685010191505092915050565b60208152600060018060a01b038084511660208401528060208501511660408401525060408301516060830152606083015160808301526080830151151560a083015260a083015160c0808401526106a660e0840182610605565b949350505050565b6001600160a01b038781168252861660208201526040810185905260608101849052821515608082015260c060a082018190526000906106f090830184610605565b98975050505050505050565b6000806040838503121561070f57600080fd5b8235915060208301356001600160a01b038116811461072d57600080fd5b809150509250929050565b634e487b7160e01b600052604160045260246000fd5b60008060006060848603121561076357600080fd5b8335925060208401359150604084013567ffffffffffffffff8082111561078957600080fd5b818601915086601f83011261079d57600080fd5b8135818111156107af576107af610738565b604051601f8201601f19908116603f011681019083821181831017156107d7576107d7610738565b816040528281528960208487010111156107f057600080fd5b8260208601602083013760006020848301015280955050505050509250925092565b600181811c9082168061082657607f821691505b60208210810361084657634e487b7160e01b600052602260045260246000fd5b50919050565b60006020828403121561085e57600080fd5b8151801515811461086e57600080fd5b9392505050565b60006001820161089557634e487b7160e01b600052601160045260246000fd5b5060010190565b601f8211156108e657600081815260208120601f850160051c810160208610156108c35750805b601f850160051c820191505b818110156108e2578281556001016108cf565b5050505b505050565b815167ffffffffffffffff81111561090557610905610738565b610919816109138454610812565b8461089c565b602080601f83116001811461094e57600084156109365750858301515b600019600386901b1c1916600185901b1785556108e2565b600085815260208120601f198616915b8281101561097d5788860151825594840194600190910190840161095e565b508582101561099b5787850151600019600388901b60f8161c191681555b5050505050600190811b0190555056fea2646970667358221220c655183296e970f3d8b56baa3fef7a40c92f4b3c05d48f76738d3b7e3dcf88f664736f6c63430008140033",
  "devdoc": {
    "kind": "dev",
    "methods": {
      "payInvoice(uint256,address)": {
        "params": {
          "_id": "The ID of the invoice to settle.",
          "_usdcAddress": "The address of USDC on Scroll."
        }
      },
      "registerInvoice(uint256,uint256,string)": {
        "params": {
          "_amount": "Amount in USDC (usually 6 decimals)",
          "_dueDate": "Unix timestamp for when payment is expected",
          "_uri": "IPFS hash containing invoice metadata (No backend needed!)"
        }
      }
    },
    "version": 1
  },
  "userdoc": {
    "kind": "user",
    "methods": {
      "payInvoice(uint256,address)": {
        "notice": "Client pays the invoice using USDC."
      },
      "registerInvoice(uint256,uint256,string)": {
        "notice": "Freelancer registers a new invoice."
      }
    },
    "version": 1
  },
  "storageLayout": {
    "storage": [
      {
        "astId": 39,
        "contract": "contracts/Invoice.sol:SettleInvoicing",
        "label": "invoices",
        "offset": 0,
        "slot": "0",
        "type": "t_mapping(t_uint256,t_struct(Invoice)34_storage)"
      },
      {
        "astId": 41,
        "contract": "contracts/Invoice.sol:SettleInvoicing",
        "label": "invoiceCount",
        "offset": 0,
        "slot": "1",
        "type": "t_uint256"
      }
    ],
    "types": {
      "t_address": {
        "encoding": "inplace",
        "label": "address",
        "numberOfBytes": "20"
      },
      "t_bool": {
        "encoding": "inplace",
        "label": "bool",
        "numberOfBytes": "1"
      },
      "t_mapping(t_uint256,t_struct(Invoice)34_storage)": {
        "encoding": "mapping",
        "key": "t_uint256",
        "label": "mapping(uint256 => struct SettleInvoicing.Invoice)",
        "numberOfBytes": "32",
        "value": "t_struct(Invoice)34_storage"
      },
      "t_string_storage": {
        "encoding": "bytes",
        "label": "string",
        "numberOfBytes": "32"
      },
      "t_struct(Invoice)34_storage": {
        "encoding": "inplace",
        "label": "struct SettleInvoicing.Invoice",
        "members": [
          {
            "astId": 23,
            "contract": "contracts/Invoice.sol:SettleInvoicing",
            "label": "freelancer",
            "offset": 0,
            "slot": "0",
            "type": "t_address"
          },
          {
            "astId": 25,
            "contract": "contracts/Invoice.sol:SettleInvoicing",
            "label": "client",
            "offset": 0,
            "slot": "1",
            "type": "t_address"
          },
          {
            "astId": 27,
            "contract": "contracts/Invoice.sol:SettleInvoicing",
            "label": "amount",
            "offset": 0,
            "slot": "2",
            "type": "t_uint256"
          },
          {
            "astId": 29,
            "contract": "contracts/Invoice.sol:SettleInvoicing",
            "label": "dueDate",
            "offset": 0,
            "slot": "3",
            "type": "t_uint256"
          },
          {
            "astId": 31,
            "contract": "contracts/Invoice.sol:SettleInvoicing",
            "label": "isPaid",
            "offset": 0,
            "slot": "4",
            "type": "t_bool"
          },
          {
            "astId": 33,
            "contract": "contracts/Invoice.sol:SettleInvoicing",
            "label": "invoiceURI",
            "offset": 0,
            "slot": "5",
            "type": "t_string_storage"
          }
        ],
        "numberOfBytes": "192"
      },
      "t_uint256": {
        "encoding": "inplace",
        "label": "uint256",
        "numberOfBytes": "32"
      }
    }
  }
}